{"abi":[{"type":"function","name":"checkProof","inputs":[{"name":"_pA","type":"uint256[2]","internalType":"uint256[2]"},{"name":"_pB","type":"uint256[2][2]","internalType":"uint256[2][2]"},{"name":"_pC","type":"uint256[2]","internalType":"uint256[2]"},{"name":"_pubSignals","type":"uint256[1]","internalType":"uint256[1]"}],"outputs":[],"stateMutability":"nonpayable"},{"type":"function","name":"number","inputs":[],"outputs":[{"name":"","type":"uint256","internalType":"uint256"}],"stateMutability":"view"},{"type":"function","name":"verifyProof","inputs":[{"name":"_pA","type":"uint256[2]","internalType":"uint256[2]"},{"name":"_pB","type":"uint256[2][2]","internalType":"uint256[2][2]"},{"name":"_pC","type":"uint256[2]","internalType":"uint256[2]"},{"name":"_pubSignals","type":"uint256[1]","internalType":"uint256[1]"}],"outputs":[{"name":"","type":"bool","internalType":"bool"}],"stateMutability":"view"},{"type":"event","name":"Proved","inputs":[{"name":"proved","type":"bool","indexed":false,"internalType":"bool"}],"anonymous":false}],"bytecode":{"object":"0x608060405234801561001057600080fd5b506105f3806100206000396000f3fe608060405234801561001057600080fd5b50600436106100415760003560e01c806343753b4d1461004657806373d643da1461006e5780638381f58a14610083575b600080fd5b610059610054366004610557565b61009a565b60405190151581526020015b60405180910390f35b61008161007c366004610557565b6104fa565b005b61008c60005481565b604051908152602001610065565b60006104bc565b7f30644e72e131a029b85045b68181585d97816a916871ca8d3c208c16d87cfd4781106100d2576000805260206000f35b50565b600060405183815284602082015285604082015260408160608360076107d05a03fa915081610108576000805260206000f35b825160408201526020830151606082015260408360808360066107d05a03fa91505080610139576000805260206000f35b5050505050565b7ee4eecf609de0886b0cd8e55ad7badb57c2e93a1c2abaa80db824883696b30a85527f12de78606a0edb3b9b82ea45013219f2a8d64c8abd54a9838265315b7bcbe3cc6020860152600060808601866101dc87357f02c81b1a7dcaa045681c4631ea05688961efc3fa171f82e310ff3ca872b85d177f198c130a918737bb51c08e1df9d1fbf1fa3aa4447b31f25c5642aa040367e2a9846100d5565b50823581527f30644e72e131a029b85045b68181585d97816a916871ca8d3c208c16d87cfd4760208401357f30644e72e131a029b85045b68181585d97816a916871ca8d3c208c16d87cfd4703066020820152833560408201526020840135606082015260408401356080820152606084013560a08201527f0a4a2beb357f84ea89687c3359664b85db43dd2c8580c40589dfa909f1df1dd260c08201527f2169ae08a799b04016c59af51878edd8c6561f358a4ffecb0fa44c259942826e60e08201527f2a17af19b4039b393eebca2ba65a954743888a1f8b372fae295505791c5839f26101008201527f210bee2b269dbe72ce7d415a4e0e5b21c403a38ca302e5713891b2ded3e22def6101208201527f0bb111fd4252c87c4399e70ecbd1c6dcf8d10842a76a36f786443d0b2fcbe3bf6101408201527f08f1c3281385274dba5d45062b60c2bf31b16ef78ee8aee078a605e0067bae38610160820152600087015161018082015260206000018701516101a08201527f198e9393920d483a7260bfb731fb5d25f1aa493335a9e71297e485b7aef312c26101c08201527f1800deef121f1e76426a00665e5c4479674322d4f75edadd46debd5cd992f6ed6101e08201527f090689d0585ff075ec9e99ad690c3395bc4b313370b38ef355acdadcd122975b6102008201527f12c85ea5db8c6deb4aab71808dcb408fe3d1e7690c43d37b4ce6cc0166fa7daa610220820152843561024082015260208501356102608201527f2f9c204bc76723b302e4c3fe3bd213d28c2575f5a584cc07705b849ae7fe22e16102808201527f27bea8361a2906fce6675ab02756df4d5bcb1e5694e7215db73166882d2e03cb6102a08201527f2fba40316d499a29d96c4e94c99e097c6b89d04a6367d0468cf3bda023adb44c6102c08201527f0bb83ca0669b59d4b4c3a75a5fd2b9bc62bbcb1d8da4472c4aa67161a3788e146102e08201526020816103008360086107d05a03fa9051169695505050505050565b60405161038081016040526104d460008401356100a1565b6104e160208401356100a1565b6104ee818486888a610140565b90508060005260206000f35b7f94118acca63f886c3b62667517e4ce83a026d81583f5240a90bf285a295d15336105278585858561009a565b604051901515815260200160405180910390a150505050565b806040810183101561055157600080fd5b92915050565b60008060008061012080868803121561056f57600080fd5b6105798787610540565b945060c086018781111561058c57600080fd5b60408701945061059c8882610540565b9350508681870111156105ae57600080fd5b5092959194509261010001915056fea2646970667358221220af53dfb06283520a58970b94fea3f58919bc216543026d998c8c9df413dff07c64736f6c63430008180033","linkReferences":{}},"methodIdentifiers":{"checkProof(uint256[2],uint256[2][2],uint256[2],uint256[1])":"73d643da","number()":"8381f58a","verifyProof(uint256[2],uint256[2][2],uint256[2],uint256[1])":"43753b4d"},"id":23}